{
  "fileName": "Raffle.sol",
  "contractName": "Raffle",
  "source": "pragma solidity >=0.4.21 <0.7.0;\npragma experimental ABIEncoderV2;\n\n//import \"@openzeppelin/contracts-ethereum-package/contracts/Initializable.sol\";\nimport \"openzeppelin-solidity/contracts/ownership/Ownable.sol\";\nimport \"openzeppelin-solidity/contracts/math/SafeMath.sol\";\n\nimport {IBridge} from \"./interface/IBridge.sol\";\nimport {ParamsDecoder, ResultDecoder} from \"./lib/Decoders.sol\";\n\n\n\ncontract Raffle  {\n\n    event lotteryCompletion(uint256 first, uint256 second, uint256 third, uint256 platformAmount, uint256 firstPrize, uint256 secondPrize, uint256 thirdPrize);\n    event YourTicket(uint256 start, uint256 end);\n    uint256 public ticketPrice;\n    address payable public platformAddress;\n    uint256 public totalGivenAmount;\n    IBridge public bridge;\n\n\n    struct Participant {\n        address payable addr;\n        uint256 ticketNumber;\n    }\n\n    struct LotteryForDay {\n        address first;  \n        address second;\n        address third;\n        mapping(uint => Participant) participants;\n        uint256 totalTicketSold;\n        uint256 ticketPrice; \n    }\n\n    mapping(uint => LotteryForDay) public lotteries;\n    uint256 public currentLottery = 1;\n    uint256 public ticketNum =1;\n    using SafeMath for uint256;\n    using ResultDecoder for bytes;\n    using ParamsDecoder for bytes;\n\n\n    constructor(uint256 _ticketPrice, IBridge _bridge, address payable _platformAddress) public  {\n        ticketPrice = _ticketPrice;\n        bridge = _bridge;\n        platformAddress = _platformAddress; //platform address \"rename\" --\n    }\n\n    function buyTicket() public payable  returns (uint256, uint256) {\n        //Everyone can apply as much as they want and 100 ticket a time.\n        require(msg.value%ticketPrice == 0 && msg.value/ticketPrice < 101 && msg.value >0, \n                \"Invalid value input\"\n        );\n        uint256 ticketAmount = msg.value/ticketPrice; // 100 tickets at a time and reject \n        uint256 startTicket = ticketNum;\n        for(uint128 i = 1; i <= ticketAmount; i++){\n            //lotteries[currentLottery].participants.push(Participant(msg.sender));\n            lotteries[currentLottery].participants[ticketNum].addr = msg.sender;\n            lotteries[currentLottery].participants[ticketNum].ticketNumber = ticketNum;\n        \n            ticketNum = ticketNum.add(1);\n        }    \n        uint256 endTicket = ticketNum.sub(1);\n        emit YourTicket(startTicket,endTicket);\n        return(startTicket,endTicket);\n\n    }\n\n    function ticketCount() external view returns (uint256 totalTicket) { //readonly method for all read state.\n        return ticketNum.sub(1);\n    }\n\n    function gameInfo(uint256 gameId) external view returns(address First, address Second, address Third, uint participants, uint TicketPrice){\n        LotteryForDay memory lottery = lotteries[gameId];\n        return (lottery.first,lottery.second,lottery.third,lottery.totalTicketSold,lottery.ticketPrice);\n    }\n\n\n    function setPlatformAddress(address payable _newPlatform) public {  //platform \n        require(_newPlatform != address(0),\"Invalid Address\");\n        platformAddress = _newPlatform;\n    }\n\n    function calculateResult(bytes memory data) public returns (uint256, uint256, uint256){\n        \n        require(\n            ticketNum > 10,\n            \"Must be equal to or greater than 3\"\n        );\n\n        uint256 totalBalance = address(this).balance;\n     \n        // Send money to an platform address to cover the costs.\n        uint256 platformAmount = totalBalance.mul(20) / 100;\n        platformAddress.transfer(platformAmount);\n        uint256 totalParticipant = ticketNum.sub(1); \n        uint256 First = random(data,totalParticipant);\n        //Needed the use of the mechanism to find two different random number\n         uint256 Second = First.add(50) % totalParticipant;\n        uint256 Third = Second.add(75) % totalParticipant;   \n        address payable firstWinner = lotteries[currentLottery].participants[First].addr;\n        uint256 firstPrize = totalBalance.mul(50) / 100;\n        firstWinner.transfer(firstPrize);\n\n        address payable secondWinner = lotteries[currentLottery].participants[Second].addr;\n        uint256 secondPrize = totalBalance.mul(20) / 100;\n        secondWinner.transfer(secondPrize);\n\n        address payable thirdWinner = lotteries[currentLottery].participants[Third].addr;\n        uint256 thirdPrize = address(this).balance;\n        thirdWinner.transfer(thirdPrize);\n\n        lotteries[currentLottery].first = firstWinner;\n        lotteries[currentLottery].second = secondWinner;\n        lotteries[currentLottery].third = thirdWinner;\n        lotteries[currentLottery].totalTicketSold = ticketNum.sub(1);\n        lotteries[currentLottery].ticketPrice = ticketPrice;\n        totalGivenAmount += firstPrize + secondPrize + thirdPrize;\n\n        emit lotteryCompletion(First, Second, Third, platformAmount, firstPrize, secondPrize, thirdPrize);\n        require(address(this).balance == 0, \"Balance should be 0 in order to start a new lottery\");\n        currentLottery = currentLottery.add(1);\n        ticketNum = 1;\n        return (First,Second,Third);\n    }    \n\n    //Helper Function\n\n    function random(bytes memory _data, uint256 totalParticipant) internal returns(uint256) {\n        (\n            IBridge.RequestPacket memory latestReq,\n            IBridge.ResponsePacket memory latestRes\n        ) = bridge.relayAndVerify(_data);\n\n         ParamsDecoder.Params memory params = latestReq.params.decodeParams();\n        uint64 oracleScriptID = latestReq.oracleScriptId;\n        ResultDecoder.Result memory result = latestRes.result.decodeResult();\n\n         // Check for correct oracleScriptID\n        require(\n            oracleScriptID ==\n                11,\n            \"ERROR_ORACLE_SCRIPT_ID_DOES_NOT_MATCH_WITH_EXPECTED\"\n        );\n        // Check for correct request parameters\n        require(\n            params.size ==\n                1,\n            \"ERROR_SIZE_DOES_NOT_MATCH_WITH_EXPECTED\"\n        );\n        string memory randomNumber = result.random_bytes;\n        uint256 randomNumberFinal = toint(randomNumber);\n        uint256 randNum = randomNumberFinal % totalParticipant;\n        return (randNum);  \n    } \n\n    function toint(string memory s) internal pure returns (uint256 result) {\n        bytes memory b = bytes(s);\n        uint8 num = uint8(uint256(keccak256(b)));\n        result = num;\n    }\n\n}\n\n",
  "sourcePath": "contracts/Raffle.sol",
  "abi": [
    {
      "inputs": [
        {
          "internalType": "uint256",
          "name": "_ticketPrice",
          "type": "uint256"
        },
        {
          "internalType": "contract IBridge",
          "name": "_bridge",
          "type": "address"
        },
        {
          "internalType": "address payable",
          "name": "_platformAddress",
          "type": "address"
        }
      ],
      "payable": false,
      "stateMutability": "nonpayable",
      "type": "constructor"
    },
    {
      "anonymous": false,
      "inputs": [
        {
          "indexed": false,
          "internalType": "uint256",
          "name": "start",
          "type": "uint256"
        },
        {
          "indexed": false,
          "internalType": "uint256",
          "name": "end",
          "type": "uint256"
        }
      ],
      "name": "YourTicket",
      "type": "event"
    },
    {
      "anonymous": false,
      "inputs": [
        {
          "indexed": false,
          "internalType": "uint256",
          "name": "first",
          "type": "uint256"
        },
        {
          "indexed": false,
          "internalType": "uint256",
          "name": "second",
          "type": "uint256"
        },
        {
          "indexed": false,
          "internalType": "uint256",
          "name": "third",
          "type": "uint256"
        },
        {
          "indexed": false,
          "internalType": "uint256",
          "name": "platformAmount",
          "type": "uint256"
        },
        {
          "indexed": false,
          "internalType": "uint256",
          "name": "firstPrize",
          "type": "uint256"
        },
        {
          "indexed": false,
          "internalType": "uint256",
          "name": "secondPrize",
          "type": "uint256"
        },
        {
          "indexed": false,
          "internalType": "uint256",
          "name": "thirdPrize",
          "type": "uint256"
        }
      ],
      "name": "lotteryCompletion",
      "type": "event"
    },
    {
      "constant": true,
      "inputs": [],
      "name": "bridge",
      "outputs": [
        {
          "internalType": "contract IBridge",
          "name": "",
          "type": "address"
        }
      ],
      "payable": false,
      "stateMutability": "view",
      "type": "function"
    },
    {
      "constant": false,
      "inputs": [],
      "name": "buyTicket",
      "outputs": [
        {
          "internalType": "uint256",
          "name": "",
          "type": "uint256"
        },
        {
          "internalType": "uint256",
          "name": "",
          "type": "uint256"
        }
      ],
      "payable": true,
      "stateMutability": "payable",
      "type": "function"
    },
    {
      "constant": false,
      "inputs": [
        {
          "internalType": "bytes",
          "name": "data",
          "type": "bytes"
        }
      ],
      "name": "calculateResult",
      "outputs": [
        {
          "internalType": "uint256",
          "name": "",
          "type": "uint256"
        },
        {
          "internalType": "uint256",
          "name": "",
          "type": "uint256"
        },
        {
          "internalType": "uint256",
          "name": "",
          "type": "uint256"
        }
      ],
      "payable": false,
      "stateMutability": "nonpayable",
      "type": "function"
    },
    {
      "constant": true,
      "inputs": [],
      "name": "currentLottery",
      "outputs": [
        {
          "internalType": "uint256",
          "name": "",
          "type": "uint256"
        }
      ],
      "payable": false,
      "stateMutability": "view",
      "type": "function"
    },
    {
      "constant": true,
      "inputs": [
        {
          "internalType": "uint256",
          "name": "gameId",
          "type": "uint256"
        }
      ],
      "name": "gameInfo",
      "outputs": [
        {
          "internalType": "address",
          "name": "First",
          "type": "address"
        },
        {
          "internalType": "address",
          "name": "Second",
          "type": "address"
        },
        {
          "internalType": "address",
          "name": "Third",
          "type": "address"
        },
        {
          "internalType": "uint256",
          "name": "participants",
          "type": "uint256"
        },
        {
          "internalType": "uint256",
          "name": "TicketPrice",
          "type": "uint256"
        }
      ],
      "payable": false,
      "stateMutability": "view",
      "type": "function"
    },
    {
      "constant": true,
      "inputs": [
        {
          "internalType": "uint256",
          "name": "",
          "type": "uint256"
        }
      ],
      "name": "lotteries",
      "outputs": [
        {
          "internalType": "address",
          "name": "first",
          "type": "address"
        },
        {
          "internalType": "address",
          "name": "second",
          "type": "address"
        },
        {
          "internalType": "address",
          "name": "third",
          "type": "address"
        },
        {
          "internalType": "uint256",
          "name": "totalTicketSold",
          "type": "uint256"
        },
        {
          "internalType": "uint256",
          "name": "ticketPrice",
          "type": "uint256"
        }
      ],
      "payable": false,
      "stateMutability": "view",
      "type": "function"
    },
    {
      "constant": true,
      "inputs": [],
      "name": "platformAddress",
      "outputs": [
        {
          "internalType": "address payable",
          "name": "",
          "type": "address"
        }
      ],
      "payable": false,
      "stateMutability": "view",
      "type": "function"
    },
    {
      "constant": false,
      "inputs": [
        {
          "internalType": "address payable",
          "name": "_newPlatform",
          "type": "address"
        }
      ],
      "name": "setPlatformAddress",
      "outputs": [],
      "payable": false,
      "stateMutability": "nonpayable",
      "type": "function"
    },
    {
      "constant": true,
      "inputs": [],
      "name": "ticketCount",
      "outputs": [
        {
          "internalType": "uint256",
          "name": "totalTicket",
          "type": "uint256"
        }
      ],
      "payable": false,
      "stateMutability": "view",
      "type": "function"
    },
    {
      "constant": true,
      "inputs": [],
      "name": "ticketNum",
      "outputs": [
        {
          "internalType": "uint256",
          "name": "",
          "type": "uint256"
        }
      ],
      "payable": false,
      "stateMutability": "view",
      "type": "function"
    },
    {
      "constant": true,
      "inputs": [],
      "name": "ticketPrice",
      "outputs": [
        {
          "internalType": "uint256",
          "name": "",
          "type": "uint256"
        }
      ],
      "payable": false,
      "stateMutability": "view",
      "type": "function"
    },
    {
      "constant": true,
      "inputs": [],
      "name": "totalGivenAmount",
      "outputs": [
        {
          "internalType": "uint256",
          "name": "",
          "type": "uint256"
        }
      ],
      "payable": false,
      "stateMutability": "view",
      "type": "function"
    }
  ],
  "bytecode": "0x6080604052600160055560016006553480156200001b57600080fd5b506040516200240c3803806200240c833981810160405262000041919081019062000118565b8260008190555081600360006101000a81548173ffffffffffffffffffffffffffffffffffffffff021916908373ffffffffffffffffffffffffffffffffffffffff16021790555080600160006101000a81548173ffffffffffffffffffffffffffffffffffffffff021916908373ffffffffffffffffffffffffffffffffffffffff16021790555050505062000222565b600081519050620000e481620001d4565b92915050565b600081519050620000fb81620001ee565b92915050565b600081519050620001128162000208565b92915050565b6000806000606084860312156200012e57600080fd5b60006200013e8682870162000101565b93505060206200015186828701620000ea565b92505060406200016486828701620000d3565b9150509250925092565b60006200017b82620001aa565b9050919050565b60006200018f82620001aa565b9050919050565b6000620001a3826200016e565b9050919050565b600073ffffffffffffffffffffffffffffffffffffffff82169050919050565b6000819050919050565b620001df8162000182565b8114620001eb57600080fd5b50565b620001f98162000196565b81146200020557600080fd5b50565b6200021381620001ca565b81146200021f57600080fd5b50565b6121da80620002326000396000f3fe6080604052600436106100a75760003560e01c8063cc03c34211610064578063cc03c342146101da578063cfbd900f14610203578063dbe55e561461022e578063e78cea9214610259578063edca914c14610284578063f8479a51146102a3576100a7565b80631209b1f6146100ac5780631398e076146100d75780632bd56b06146101185780638c1718bd14610143578063a6f816681461016e578063aa099a6b146101af575b600080fd5b3480156100b857600080fd5b506100c16102e2565b6040516100ce9190611e82565b60405180910390f35b3480156100e357600080fd5b506100fe60048036036100f991908101906118c0565b6102e8565b60405161010f959493929190611cb0565b60405180910390f35b34801561012457600080fd5b5061012d61037e565b60405161013a9190611e82565b60405180910390f35b34801561014f57600080fd5b50610158610384565b6040516101659190611e82565b60405180910390f35b34801561017a57600080fd5b50610195600480360361019091908101906118c0565b61038a565b6040516101a6959493929190611cb0565b60405180910390f35b3480156101bb57600080fd5b506101c46104fd565b6040516101d19190611e82565b60405180910390f35b3480156101e657600080fd5b5061020160048036036101fc91908101906117ea565b610503565b005b34801561020f57600080fd5b506102186105b7565b6040516102259190611e82565b60405180910390f35b34801561023a57600080fd5b506102436105d4565b6040516102509190611c95565b60405180910390f35b34801561026557600080fd5b5061026e6105fa565b60405161027b9190611d25565b60405180910390f35b61028c610620565b60405161029a929190611e9d565b60405180910390f35b3480156102af57600080fd5b506102ca60048036036102c59190810190611813565b6107f5565b6040516102d993929190611ec6565b60405180910390f35b60005481565b60046020528060005260406000206000915090508060000160009054906101000a900473ffffffffffffffffffffffffffffffffffffffff16908060010160009054906101000a900473ffffffffffffffffffffffffffffffffffffffff16908060020160009054906101000a900473ffffffffffffffffffffffffffffffffffffffff16908060040154908060050154905085565b60055481565b60025481565b600080600080600061039a611392565b600460008881526020019081526020016000206040518060a00160405290816000820160009054906101000a900473ffffffffffffffffffffffffffffffffffffffff1673ffffffffffffffffffffffffffffffffffffffff1673ffffffffffffffffffffffffffffffffffffffff1681526020016001820160009054906101000a900473ffffffffffffffffffffffffffffffffffffffff1673ffffffffffffffffffffffffffffffffffffffff1673ffffffffffffffffffffffffffffffffffffffff1681526020016002820160009054906101000a900473ffffffffffffffffffffffffffffffffffffffff1673ffffffffffffffffffffffffffffffffffffffff1673ffffffffffffffffffffffffffffffffffffffff16815260200160048201548152602001600582015481525050905080600001518160200151826040015183606001518460800151955095509550955095505091939590929450565b60065481565b600073ffffffffffffffffffffffffffffffffffffffff168173ffffffffffffffffffffffffffffffffffffffff161415610573576040517f08c379a000000000000000000000000000000000000000000000000000000000815260040161056a90611e42565b60405180910390fd5b80600160006101000a81548173ffffffffffffffffffffffffffffffffffffffff021916908373ffffffffffffffffffffffffffffffffffffffff16021790555050565b60006105cf6001600654610dbf90919063ffffffff16565b905090565b600160009054906101000a900473ffffffffffffffffffffffffffffffffffffffff1681565b600360009054906101000a900473ffffffffffffffffffffffffffffffffffffffff1681565b60008060008054348161062f57fe5b0614801561064857506065600054348161064557fe5b04105b80156106545750600034115b610693576040517f08c379a000000000000000000000000000000000000000000000000000000000815260040161068a90611de2565b60405180910390fd5b60008054348161069f57fe5b049050600060065490506000600190505b82816fffffffffffffffffffffffffffffffff161161079457336004600060055481526020019081526020016000206003016000600654815260200190815260200160002060000160006101000a81548173ffffffffffffffffffffffffffffffffffffffff021916908373ffffffffffffffffffffffffffffffffffffffff16021790555060065460046000600554815260200190815260200160002060030160006006548152602001908152602001600020600101819055506107816001600654610e0990919063ffffffff16565b60068190555080806001019150506106b0565b5060006107ad6001600654610dbf90919063ffffffff16565b90507f7750f303a906ff626215ecad20c1122018883b60cd31b416b0d07d01a55a15f482826040516107e0929190611e9d565b60405180910390a18181945094505050509091565b6000806000600a6006541161083f576040517f08c379a000000000000000000000000000000000000000000000000000000000815260040161083690611e62565b60405180910390fd5b60003073ffffffffffffffffffffffffffffffffffffffff1631905060006064610873601484610e5e90919063ffffffff16565b8161087a57fe5b049050600160009054906101000a900473ffffffffffffffffffffffffffffffffffffffff1673ffffffffffffffffffffffffffffffffffffffff166108fc829081150290604051600060405180830381858888f193505050501580156108e5573d6000803e3d6000fd5b5060006108fe6001600654610dbf90919063ffffffff16565b9050600061090c8883610ece565b9050600082610925603284610e0990919063ffffffff16565b8161092c57fe5b069050600083610946604b84610e0990919063ffffffff16565b8161094d57fe5b0690506000600460006005548152602001908152602001600020600301600085815260200190815260200160002060000160009054906101000a900473ffffffffffffffffffffffffffffffffffffffff169050600060646109b960328a610e5e90919063ffffffff16565b816109c057fe5b0490508173ffffffffffffffffffffffffffffffffffffffff166108fc829081150290604051600060405180830381858888f19350505050158015610a09573d6000803e3d6000fd5b506000600460006005548152602001908152602001600020600301600086815260200190815260200160002060000160009054906101000a900473ffffffffffffffffffffffffffffffffffffffff16905060006064610a7360148c610e5e90919063ffffffff16565b81610a7a57fe5b0490508173ffffffffffffffffffffffffffffffffffffffff166108fc829081150290604051600060405180830381858888f19350505050158015610ac3573d6000803e3d6000fd5b506000600460006005548152602001908152602001600020600301600087815260200190815260200160002060000160009054906101000a900473ffffffffffffffffffffffffffffffffffffffff16905060003073ffffffffffffffffffffffffffffffffffffffff163190508173ffffffffffffffffffffffffffffffffffffffff166108fc829081150290604051600060405180830381858888f19350505050158015610b77573d6000803e3d6000fd5b508560046000600554815260200190815260200160002060000160006101000a81548173ffffffffffffffffffffffffffffffffffffffff021916908373ffffffffffffffffffffffffffffffffffffffff1602179055508360046000600554815260200190815260200160002060010160006101000a81548173ffffffffffffffffffffffffffffffffffffffff021916908373ffffffffffffffffffffffffffffffffffffffff1602179055508160046000600554815260200190815260200160002060020160006101000a81548173ffffffffffffffffffffffffffffffffffffffff021916908373ffffffffffffffffffffffffffffffffffffffff160217905550610c936001600654610dbf90919063ffffffff16565b600460006005548152602001908152602001600020600401819055506000546004600060055481526020019081526020016000206005018190555080838601016002600082825401925050819055507f4da7384e6e82955a3873b12db0a2d3eed67fce02d6336a369d75f53fcf0956c08989898e898887604051610d1d9796959493929190611efd565b60405180910390a160003073ffffffffffffffffffffffffffffffffffffffff163114610d7f576040517f08c379a0000000000000000000000000000000000000000000000000000000008152600401610d7690611e02565b60405180910390fd5b610d956001600554610e0990919063ffffffff16565b60058190555060016006819055508888889e509e509e505050505050505050505050509193909250565b6000610e0183836040518060400160405280601e81526020017f536166654d6174683a207375627472616374696f6e206f766572666c6f7700008152506110a0565b905092915050565b600080828401905083811015610e54576040517f08c379a0000000000000000000000000000000000000000000000000000000008152600401610e4b90611d82565b60405180910390fd5b8091505092915050565b600080831415610e715760009050610ec8565b6000828402905082848281610e8257fe5b0414610ec3576040517f08c379a0000000000000000000000000000000000000000000000000000000008152600401610eba90611dc2565b60405180910390fd5b809150505b92915050565b6000610ed8611403565b610ee0611450565b600360009054906101000a900473ffffffffffffffffffffffffffffffffffffffff1673ffffffffffffffffffffffffffffffffffffffff1663ad373732866040518263ffffffff1660e01b8152600401610f3b9190611d03565b600060405180830381600087803b158015610f5557600080fd5b505af1158015610f69573d6000803e3d6000fd5b505050506040513d6000823e3d601f19601f82011682018060405250610f929190810190611854565b91509150610f9e6114b8565b610fab83604001516110fb565b9050600083602001519050610fbe6114d5565b610fcb8460c00151611144565b9050600b8267ffffffffffffffff161461101a576040517f08c379a000000000000000000000000000000000000000000000000000000000815260040161101190611d62565b60405180910390fd5b6001836000015167ffffffffffffffff161461106b576040517f08c379a000000000000000000000000000000000000000000000000000000000815260040161106290611e22565b60405180910390fd5b606081600001519050600061107f82611176565b9050600089828161108c57fe5b069050809850505050505050505092915050565b60008383111582906110e8576040517f08c379a00000000000000000000000000000000000000000000000000000000081526004016110df9190611d40565b60405180910390fd5b5060008385039050809150509392505050565b6111036114b8565b61110b6114e8565b61111483611199565b905061111f816111be565b826000019067ffffffffffffffff16908167ffffffffffffffff168152505050919050565b61114c6114d5565b6111546114e8565b61115d83611199565b9050611168816111f7565b826000018190525050919050565b600060608290506000818051906020012060001c90508060ff1692505050919050565b6111a16114e8565b604051806040016040528060008152602001838152509050919050565b600060206111cb836112a6565b63ffffffff1667ffffffffffffffff16901b90506111e8826112a6565b63ffffffff1681179050919050565b6060611202826112a6565b63ffffffff166040519080825280601f01601f19166020018201604052801561123a5781602001600182028038833980820191505090505b50905060008090505b81518110156112a057611255836112d7565b60f81b82828151811061126457fe5b60200101907effffffffffffffffffffffffffffffffffffffffffffffffffffffffffffff1916908160001a9053508080600101915050611243565b50919050565b600060106112b383611365565b61ffff1663ffffffff16901b90506112ca82611365565b61ffff1681179050919050565b600081600180826000015101826020015151101561132a576040517f08c379a000000000000000000000000000000000000000000000000000000000815260040161132190611da2565b60405180910390fd5b836020015184600001518151811061133e57fe5b602001015160f81c60f81b60f81c9250808260000181815101915081815250505050919050565b60006008611372836112d7565b60ff1661ffff16901b9050611386826112d7565b60ff1681179050919050565b6040518060a00160405280600073ffffffffffffffffffffffffffffffffffffffff168152602001600073ffffffffffffffffffffffffffffffffffffffff168152602001600073ffffffffffffffffffffffffffffffffffffffff16815260200160008152602001600081525090565b6040518060a0016040528060608152602001600067ffffffffffffffff16815260200160608152602001600067ffffffffffffffff168152602001600067ffffffffffffffff1681525090565b6040518060e0016040528060608152602001600067ffffffffffffffff168152602001600067ffffffffffffffff168152602001600067ffffffffffffffff168152602001600067ffffffffffffffff168152602001600060ff168152602001606081525090565b6040518060200160405280600067ffffffffffffffff1681525090565b6040518060200160405280606081525090565b604051806040016040528060008152602001606081525090565b6000813590506115118161213b565b92915050565b600082601f83011261152857600080fd5b815161153b61153682611f99565b611f6c565b9150808252602083016020830185838301111561155757600080fd5b6115628382846120f7565b50505092915050565b600082601f83011261157c57600080fd5b813561158f61158a82611fc5565b611f6c565b915080825260208301602083018583830111156115ab57600080fd5b6115b68382846120e8565b50505092915050565b600082601f8301126115d057600080fd5b81516115e36115de82611ff1565b611f6c565b915080825260208301602083018583830111156115ff57600080fd5b61160a8382846120f7565b50505092915050565b600060a0828403121561162557600080fd5b61162f60a0611f6c565b9050600082015167ffffffffffffffff81111561164b57600080fd5b611657848285016115bf565b600083015250602061166b848285016117c0565b602083015250604082015167ffffffffffffffff81111561168b57600080fd5b61169784828501611517565b60408301525060606116ab848285016117c0565b60608301525060806116bf848285016117c0565b60808301525092915050565b600060e082840312156116dd57600080fd5b6116e760e0611f6c565b9050600082015167ffffffffffffffff81111561170357600080fd5b61170f848285016115bf565b6000830152506020611723848285016117c0565b6020830152506040611737848285016117c0565b604083015250606061174b848285016117c0565b606083015250608061175f848285016117c0565b60808301525060a0611773848285016117d5565b60a08301525060c082015167ffffffffffffffff81111561179357600080fd5b61179f84828501611517565b60c08301525092915050565b6000813590506117ba81612152565b92915050565b6000815190506117cf81612169565b92915050565b6000815190506117e481612180565b92915050565b6000602082840312156117fc57600080fd5b600061180a84828501611502565b91505092915050565b60006020828403121561182557600080fd5b600082013567ffffffffffffffff81111561183f57600080fd5b61184b8482850161156b565b91505092915050565b6000806040838503121561186757600080fd5b600083015167ffffffffffffffff81111561188157600080fd5b61188d85828601611613565b925050602083015167ffffffffffffffff8111156118aa57600080fd5b6118b6858286016116cb565b9150509250929050565b6000602082840312156118d257600080fd5b60006118e0848285016117ab565b91505092915050565b6118f281612067565b82525050565b61190181612055565b82525050565b60006119128261201d565b61191c8185612033565b935061192c8185602086016120f7565b6119358161212a565b840191505092915050565b611949816120c4565b82525050565b600061195a82612028565b6119648185612044565b93506119748185602086016120f7565b61197d8161212a565b840191505092915050565b6000611995603383612044565b91507f4552524f525f4f5241434c455f5343524950545f49445f444f45535f4e4f545f60008301527f4d415443485f574954485f4558504543544544000000000000000000000000006020830152604082019050919050565b60006119fb601b83612044565b91507f536166654d6174683a206164646974696f6e206f766572666c6f7700000000006000830152602082019050919050565b6000611a3b601183612044565b91507f4f62693a204f7574206f662072616e67650000000000000000000000000000006000830152602082019050919050565b6000611a7b602183612044565b91507f536166654d6174683a206d756c7469706c69636174696f6e206f766572666c6f60008301527f77000000000000000000000000000000000000000000000000000000000000006020830152604082019050919050565b6000611ae1601383612044565b91507f496e76616c69642076616c756520696e707574000000000000000000000000006000830152602082019050919050565b6000611b21603383612044565b91507f42616c616e63652073686f756c64206265203020696e206f7264657220746f2060008301527f73746172742061206e6577206c6f7474657279000000000000000000000000006020830152604082019050919050565b6000611b87602783612044565b91507f4552524f525f53495a455f444f45535f4e4f545f4d415443485f574954485f4560008301527f58504543544544000000000000000000000000000000000000000000000000006020830152604082019050919050565b6000611bed600f83612044565b91507f496e76616c6964204164647265737300000000000000000000000000000000006000830152602082019050919050565b6000611c2d602283612044565b91507f4d75737420626520657175616c20746f206f722067726561746572207468616e60008301527f20330000000000000000000000000000000000000000000000000000000000006020830152604082019050919050565b611c8f81612099565b82525050565b6000602082019050611caa60008301846118e9565b92915050565b600060a082019050611cc560008301886118f8565b611cd260208301876118f8565b611cdf60408301866118f8565b611cec6060830185611c86565b611cf96080830184611c86565b9695505050505050565b60006020820190508181036000830152611d1d8184611907565b905092915050565b6000602082019050611d3a6000830184611940565b92915050565b60006020820190508181036000830152611d5a818461194f565b905092915050565b60006020820190508181036000830152611d7b81611988565b9050919050565b60006020820190508181036000830152611d9b816119ee565b9050919050565b60006020820190508181036000830152611dbb81611a2e565b9050919050565b60006020820190508181036000830152611ddb81611a6e565b9050919050565b60006020820190508181036000830152611dfb81611ad4565b9050919050565b60006020820190508181036000830152611e1b81611b14565b9050919050565b60006020820190508181036000830152611e3b81611b7a565b9050919050565b60006020820190508181036000830152611e5b81611be0565b9050919050565b60006020820190508181036000830152611e7b81611c20565b9050919050565b6000602082019050611e976000830184611c86565b92915050565b6000604082019050611eb26000830185611c86565b611ebf6020830184611c86565b9392505050565b6000606082019050611edb6000830186611c86565b611ee86020830185611c86565b611ef56040830184611c86565b949350505050565b600060e082019050611f12600083018a611c86565b611f1f6020830189611c86565b611f2c6040830188611c86565b611f396060830187611c86565b611f466080830186611c86565b611f5360a0830185611c86565b611f6060c0830184611c86565b98975050505050505050565b6000604051905081810181811067ffffffffffffffff82111715611f8f57600080fd5b8060405250919050565b600067ffffffffffffffff821115611fb057600080fd5b601f19601f8301169050602081019050919050565b600067ffffffffffffffff821115611fdc57600080fd5b601f19601f8301169050602081019050919050565b600067ffffffffffffffff82111561200857600080fd5b601f19601f8301169050602081019050919050565b600081519050919050565b600081519050919050565b600082825260208201905092915050565b600082825260208201905092915050565b600061206082612079565b9050919050565b600061207282612079565b9050919050565b600073ffffffffffffffffffffffffffffffffffffffff82169050919050565b6000819050919050565b600067ffffffffffffffff82169050919050565b600060ff82169050919050565b60006120cf826120d6565b9050919050565b60006120e182612079565b9050919050565b82818337600083830152505050565b60005b838110156121155780820151818401526020810190506120fa565b83811115612124576000848401525b50505050565b6000601f19601f8301169050919050565b61214481612067565b811461214f57600080fd5b50565b61215b81612099565b811461216657600080fd5b50565b612172816120a3565b811461217d57600080fd5b50565b612189816120b7565b811461219457600080fd5b5056fea365627a7a72315820de697d3f8414647c574e1a4b72b13f9821df604659e03394ba99a783c5c09b4f6c6578706572696d656e74616cf564736f6c63430005110040",
  "compiler": {
    "name": "solc",
    "version": "0.5.17+commit.d19bba13.Emscripten.clang",
    "optimizer": {
      "enabled": false,
      "runs": 200
    },
    "evmVersion": "petersburg"
  }
}